{
  "contractName": "Helloworld",
  "abi": [
    {
      "inputs": [
        {
          "internalType": "string",
          "name": "_message",
          "type": "string"
        }
      ],
      "stateMutability": "nonpayable",
      "type": "constructor"
    },
    {
      "inputs": [],
      "name": "message",
      "outputs": [
        {
          "internalType": "string",
          "name": "",
          "type": "string"
        }
      ],
      "stateMutability": "view",
      "type": "function"
    },
    {
      "inputs": [],
      "name": "owner",
      "outputs": [
        {
          "internalType": "address",
          "name": "",
          "type": "address"
        }
      ],
      "stateMutability": "view",
      "type": "function"
    },
    {
      "inputs": [],
      "name": "hello",
      "outputs": [
        {
          "internalType": "string",
          "name": "",
          "type": "string"
        }
      ],
      "stateMutability": "view",
      "type": "function"
    },
    {
      "inputs": [
        {
          "internalType": "string",
          "name": "_message",
          "type": "string"
        }
      ],
      "name": "setMessage",
      "outputs": [],
      "stateMutability": "payable",
      "type": "function"
    }
  ],
  "bytecode": "0x60806040523480156200001157600080fd5b5060405162000e1c38038062000e1c83398181016040528101906200003791906200022e565b8060009081620000489190620004ca565b5033600160006101000a81548173ffffffffffffffffffffffffffffffffffffffff021916908373ffffffffffffffffffffffffffffffffffffffff16021790555050620005b1565b6000604051905090565b600080fd5b600080fd5b600080fd5b600080fd5b6000601f19601f8301169050919050565b7f4e487b7100000000000000000000000000000000000000000000000000000000600052604160045260246000fd5b620000fa82620000af565b810181811067ffffffffffffffff821117156200011c576200011b620000c0565b5b80604052505050565b60006200013162000091565b90506200013f8282620000ef565b919050565b600067ffffffffffffffff821115620001625762000161620000c0565b5b6200016d82620000af565b9050602081019050919050565b60005b838110156200019a5780820151818401526020810190506200017d565b83811115620001aa576000848401525b50505050565b6000620001c7620001c18462000144565b62000125565b905082815260208101848484011115620001e657620001e5620000aa565b5b620001f38482856200017a565b509392505050565b600082601f830112620002135762000212620000a5565b5b815162000225848260208601620001b0565b91505092915050565b6000602082840312156200024757620002466200009b565b5b600082015167ffffffffffffffff811115620002685762000267620000a0565b5b6200027684828501620001fb565b91505092915050565b600081519050919050565b7f4e487b7100000000000000000000000000000000000000000000000000000000600052602260045260246000fd5b60006002820490506001821680620002d257607f821691505b602082108103620002e857620002e76200028a565b5b50919050565b60008190508160005260206000209050919050565b60006020601f8301049050919050565b600082821b905092915050565b600060088302620003527fffffffffffffffffffffffffffffffffffffffffffffffffffffffffffffffff8262000313565b6200035e868362000313565b95508019841693508086168417925050509392505050565b6000819050919050565b6000819050919050565b6000620003ab620003a56200039f8462000376565b62000380565b62000376565b9050919050565b6000819050919050565b620003c7836200038a565b620003df620003d682620003b2565b84845462000320565b825550505050565b600090565b620003f6620003e7565b62000403818484620003bc565b505050565b5b818110156200042b576200041f600082620003ec565b60018101905062000409565b5050565b601f8211156200047a576200044481620002ee565b6200044f8462000303565b810160208510156200045f578190505b620004776200046e8562000303565b83018262000408565b50505b505050565b600082821c905092915050565b60006200049f600019846008026200047f565b1980831691505092915050565b6000620004ba83836200048c565b9150826002028217905092915050565b620004d5826200027f565b67ffffffffffffffff811115620004f157620004f0620000c0565b5b620004fd8254620002b9565b6200050a8282856200042f565b600060209050601f8311600181146200054257600084156200052d578287015190505b620005398582620004ac565b865550620005a9565b601f1984166200055286620002ee565b60005b828110156200057c5784890151825560018201915060208501945060208101905062000555565b868310156200059c578489015162000598601f8916826200048c565b8355505b6001600288020188555050505b505050505050565b61085b80620005c16000396000f3fe60806040526004361061003f5760003560e01c806319ff1d2114610044578063368b87721461006f5780638da5cb5b1461008b578063e21f37ce146100b6575b600080fd5b34801561005057600080fd5b506100596100e1565b604051610066919061032d565b60405180910390f35b61008960048036038101906100849190610498565b610173565b005b34801561009757600080fd5b506100a06101e0565b6040516100ad9190610522565b60405180910390f35b3480156100c257600080fd5b506100cb610206565b6040516100d8919061032d565b60405180910390f35b6060600080546100f09061056c565b80601f016020809104026020016040519081016040528092919081815260200182805461011c9061056c565b80156101695780601f1061013e57610100808354040283529160200191610169565b820191906000526020600020905b81548152906001019060200180831161014c57829003601f168201915b5050505050905090565b600160009054906101000a900473ffffffffffffffffffffffffffffffffffffffff1673ffffffffffffffffffffffffffffffffffffffff163373ffffffffffffffffffffffffffffffffffffffff16146101cd57600080fd5b80600090816101dc9190610753565b5050565b600160009054906101000a900473ffffffffffffffffffffffffffffffffffffffff1681565b600080546102139061056c565b80601f016020809104026020016040519081016040528092919081815260200182805461023f9061056c565b801561028c5780601f106102615761010080835404028352916020019161028c565b820191906000526020600020905b81548152906001019060200180831161026f57829003601f168201915b505050505081565b600081519050919050565b600082825260208201905092915050565b60005b838110156102ce5780820151818401526020810190506102b3565b838111156102dd576000848401525b50505050565b6000601f19601f8301169050919050565b60006102ff82610294565b610309818561029f565b93506103198185602086016102b0565b610322816102e3565b840191505092915050565b6000602082019050818103600083015261034781846102f4565b905092915050565b6000604051905090565b600080fd5b600080fd5b600080fd5b600080fd5b7f4e487b7100000000000000000000000000000000000000000000000000000000600052604160045260246000fd5b6103a5826102e3565b810181811067ffffffffffffffff821117156103c4576103c361036d565b5b80604052505050565b60006103d761034f565b90506103e3828261039c565b919050565b600067ffffffffffffffff8211156104035761040261036d565b5b61040c826102e3565b9050602081019050919050565b82818337600083830152505050565b600061043b610436846103e8565b6103cd565b90508281526020810184848401111561045757610456610368565b5b610462848285610419565b509392505050565b600082601f83011261047f5761047e610363565b5b813561048f848260208601610428565b91505092915050565b6000602082840312156104ae576104ad610359565b5b600082013567ffffffffffffffff8111156104cc576104cb61035e565b5b6104d88482850161046a565b91505092915050565b600073ffffffffffffffffffffffffffffffffffffffff82169050919050565b600061050c826104e1565b9050919050565b61051c81610501565b82525050565b60006020820190506105376000830184610513565b92915050565b7f4e487b7100000000000000000000000000000000000000000000000000000000600052602260045260246000fd5b6000600282049050600182168061058457607f821691505b6020821081036105975761059661053d565b5b50919050565b60008190508160005260206000209050919050565b60006020601f8301049050919050565b600082821b905092915050565b6000600883026105ff7fffffffffffffffffffffffffffffffffffffffffffffffffffffffffffffffff826105c2565b61060986836105c2565b95508019841693508086168417925050509392505050565b6000819050919050565b6000819050919050565b600061065061064b61064684610621565b61062b565b610621565b9050919050565b6000819050919050565b61066a83610635565b61067e61067682610657565b8484546105cf565b825550505050565b600090565b610693610686565b61069e818484610661565b505050565b5b818110156106c2576106b760008261068b565b6001810190506106a4565b5050565b601f821115610707576106d88161059d565b6106e1846105b2565b810160208510156106f0578190505b6107046106fc856105b2565b8301826106a3565b50505b505050565b600082821c905092915050565b600061072a6000198460080261070c565b1980831691505092915050565b60006107438383610719565b9150826002028217905092915050565b61075c82610294565b67ffffffffffffffff8111156107755761077461036d565b5b61077f825461056c565b61078a8282856106c6565b600060209050601f8311600181146107bd57600084156107ab578287015190505b6107b58582610737565b86555061081d565b601f1984166107cb8661059d565b60005b828110156107f3578489015182556001820191506020850194506020810190506107ce565b86831015610810578489015161080c601f891682610719565b8355505b6001600288020188555050505b50505050505056fea26469706673582212202945625522a933f130e77684a8a58cae94768dda365b53f7f52bbfec8ee311c764736f6c634300080f0033",
  "immutableReferences": {},
  "source": "// SPDX-License-Identifier: MIT\npragma solidity >=0.4.22 <0.9.0;\n\ncontract Helloworld {\n\n    string public message;\n    address public owner;\n\n    constructor(string memory _message){\n        message = _message;\n        owner = msg.sender;\n    }\n\n    function hello() public view returns(string memory){\n        return message;\n    }\n\n    function setMessage(string memory _message) public payable {\n        require(msg.sender == owner);\n        message = _message;\n    }\n}\n",
  "sourcePath": "/home/egonisnoise/Desktop/DEV/Truffle/contracts/HelloWorld.sol",
  "compiler": {
    "name": "solc",
    "version": "0.8.15+commit.e14f2714.Emscripten.clang"
  },
  "schemaVersion": "3.4.8",
  "updatedAt": "2022-07-12T07:17:33.762Z",
  "devdoc": {
    "kind": "dev",
    "methods": {},
    "version": 1
  },
  "userdoc": {
    "kind": "user",
    "methods": {},
    "version": 1
  }
}